:020000040800F2
:1000000000500020B54C0008194700081B470008A5
:100010001D4700081F470008214700080000000096
:10002000000000000000000000000000234700085E
:10003000254700080000000027470008294700085E
:10004000FD4C0008FD4C0008FD4C0008FD4C00086C
:10005000FD4C0008FD4C0008FD4C0008FD4C00085C
:10006000FD4C0008FD4C0008FD4C0008FD4C00084C
:10007000FD4C0008FD4C0008FD4C0008FD4C00083C
:10008000FD4C0008FD4C0008FD4C0008FD4C00082C
:10009000FD4C0008FD4C0008FD4C0008FD4C00081C
:1000A000FD4C0008FD4C0008FD4C0008FD4C00080C
:1000B000FD4C000839470008FD4C0008FD4C0008C5
:1000C000FD4C0008FD4C0008FD4C0008FD4C0008EC
:1000D000FD4C0008FD4C0008FD4C0008FD4C0008DC
:1000E000FD4C0008FD4C0008FD4C0008000000001D
:1000F0000000000000000000000000000000000000
:0C01000000000000000000005FF808F1A3
:1001100010B5054C237833B9044B13B10448AFF341
:1001200000800123237010BD10010020000000009A
:10013000A46B000808B5034B1BB103490348AFF398
:10014000008008BD0000000014010020A46B00081E
:1001500081F0004102E000BF83F0004330B54FEA78
:1001600041044FEA430594EA050F08BF90EA020FE5
:100170001FBF54EA000C55EA020C7FEA645C7FEA78
:10018000655C00F0E2804FEA5454D4EB5555B8BF9B
:100190006D420CDD2C4480EA020281EA030382EA0C
:1001A000000083EA010180EA020281EA0303362D9E
:1001B00088BF30BD11F0004F4FEA01314FF4801C71
:1001C0004CEA113102D0404261EB410113F0004F83
:1001D0004FEA03334CEA133302D0524263EB43033A
:1001E00094EA050F00F0A780A4F10104D5F1200ED8
:1001F0000DDB02FA0EFC22FA05F2801841F1000133
:1002000003FA0EF2801843FA05F359410EE0A5F106
:1002100020050EF1200E012A03FA0EFC28BF4CF037
:10022000020C43FA05F3C01851EBE37101F00045ED
:1002300007D54FF0000EDCF1000C7EEB00006EEBFA
:100240000101B1F5801F1BD3B1F5001F0CD3490884
:100250005FEA30004FEA3C0C04F101044FEA4452DB
:1002600012F5800F80F09A80BCF1004F08BF5FEA62
:10027000500C50F1000041EB045141EA050130BD42
:100280005FEA4C0C404141EB010111F4801FA4F1E5
:100290000104E9D191F0000F04BF01460020B1FA3A
:1002A00081F308BF2033A3F10B03B3F120020CDA72
:1002B0000C3208DD02F1140CC2F10C0201FA0CF050
:1002C00021FA02F10CE002F11402D8BFC2F1200CB5
:1002D00001FA02F120FA0CFCDCBF41EA0C0190406B
:1002E000E41AA2BF01EB0451294330BD6FEA0404B4
:1002F0001F3C1CDA0C340EDC04F11404C4F120029F
:1003000020FA04F001FA02F340EA030021FA04F3B0
:1003100045EA030130BDC4F10C04C4F1200220FA07
:1003200002F001FA04F340EA0300294630BD21FA45
:1003300004F0294630BD94F0000F83F4801306BF0B
:1003400081F480110134013D4EE77FEA645C18BFFF
:100350007FEA655C29D094EA050F08BF90EA020F96
:1003600005D054EA000C04BF1946104630BD91EA8E
:10037000030F1EBF0021002030BD5FEA545C05D191
:100380004000494128BF41F0004130BD14F58004D0
:100390003CBF01F5801130BD01F0004545F0FE4144
:1003A00041F470014FF0000030BD7FEA645C1ABF79
:1003B000194610467FEA655C1CBF0B46024650EAB0
:1003C000013406BF52EA033591EA030F41F40021DC
:1003D00030BD00BF90F0000F04BF0021704730B562
:1003E0004FF4806404F132044FF000054FF0000137
:1003F00050E700BF90F0000F04BF0021704730B5F8
:100400004FF4806404F1320410F0004548BF4042CC
:100410004FF000013EE700BF42004FEAE2014FEA21
:1004200031014FEA02701FBF12F07F4393F07F4FFC
:1004300081F06051704792F0000F14BF93F07F4F2E
:10044000704730B54FF4607401F0004521F0004171
:1004500020E700BF50EA010208BF704730B54FF0F7
:1004600000050AE050EA010208BF704730B511F0FC
:10047000004502D5404261EB41014FF4806404F134
:1004800032045FEA915C3FF4DCAE4FF003025FEAB6
:10049000DC0C18BF03325FEADC0C18BF033202EB3E
:1004A000DC02C2F1200300FA03FC20FA02F001FA98
:1004B00003FE40EA0E0021FA02F11444C1E600BF37
:1004C00070B54FF0FF0C4CF4E06C1CEA11541DBFEA
:1004D0001CEA135594EA0C0F95EA0C0F00F0DEF8B5
:1004E0002C4481EA030621EA4C5123EA4C5350EA9A
:1004F000013518BF52EA033541F4801143F48013EB
:1005000038D0A0FB02CE4FF00005E1FB02E506F07B
:100510000042E0FB03E54FF00006E1FB03569CF0D0
:10052000000F18BF4EF0010EA4F1FF04B6F5007FD6
:1005300064F5407404D25FEA4E0E6D4146EB060648
:1005400042EAC62141EA55514FEAC52040EA5E50D1
:100550004FEACE2EB4F1FD0C88BFBCF5E06F1ED87B
:10056000BEF1004F08BF5FEA500E50F1000041EBB2
:10057000045170BD06F0004646EA010140EA02005F
:1005800081EA0301B4EB5C04C2BFD4EB0C0541EA81
:10059000045170BD41F480114FF0000E013C00F396
:1005A000AB8014F1360FDEBF002001F0004170BDBA
:1005B000C4F10004203C35DA0C341BDC04F11404D3
:1005C000C4F1200500FA05F320FA04F001FA05F25F
:1005D00040EA020001F0004221F0004110EBD3702C
:1005E00021FA04F642EB06015EEA430E08BF20EA58
:1005F000D37070BDC4F10C04C4F1200500FA04F3FB
:1006000020FA05F001FA04F240EA020001F000418C
:1006100010EBD37041F100015EEA430E08BF20EAFF
:10062000D37070BDC4F1200500FA05F24EEA020E47
:1006300020FA04F301FA05F243EA020321FA04F076
:1006400001F0004121FA04F220EA020000EBD3702D
:100650005EEA430E08BF20EAD37070BD94F0000F2D
:100660000FD101F00046400041EB010111F4801F61
:1006700008BF013CF7D041EA060195F0000F18BF12
:10068000704703F00046520043EB030313F4801F4E
:1006900008BF013DF7D043EA0603704794EA0C0F08
:1006A0000CEA135518BF95EA0C0F0CD050EA41061E
:1006B00018BF52EA4306D1D181EA030101F000419B
:1006C0004FF0000070BD50EA410606BF10461946C3
:1006D00052EA430619D094EA0C0F02D150EA0136CF
:1006E00013D195EA0C0F05D152EA03361CBF104610
:1006F00019460AD181EA030101F0004141F0FE41AF
:1007000041F470014FF0000070BD41F0FE4141F432
:10071000780170BD70B54FF0FF0C4CF4E06C1CEA32
:1007200011541DBF1CEA135594EA0C0F95EA0C0FE7
:1007300000F0A7F8A4EB050481EA030E52EA0335A2
:100740004FEA013100F088804FEA03334FF08055C3
:1007500045EA131343EA12634FEA022245EA1115F0
:1007600045EA10654FEA00260EF000419D4208BFA1
:10077000964244F1FD0404F5407402D25B084FEA4E
:100780003202B61A65EB03055B084FEA32024FF4FA
:1007900080104FF4002CB6EB020E75EB030E22BF57
:1007A000B61A754640EA0C005B084FEA3202B6EB17
:1007B000020E75EB030E22BFB61A754640EA5C00C6
:1007C0005B084FEA3202B6EB020E75EB030E22BF56
:1007D000B61A754640EA9C005B084FEA3202B6EB57
:1007E000020E75EB030E22BFB61A754640EADC0016
:1007F00055EA060E18D04FEA051545EA16754FEA78
:1008000006164FEAC30343EA52734FEAC2025FEA95
:100810001C1CC0D111F4801F0BD141EA00014FF024
:1008200000004FF0004CB6E711F4801F04BF0143F5
:100830000020B4F1FD0C88BFBCF5E06F3FF6AFAE11
:10084000B5EB030C04BFB6EB020C5FEA500C50F1A1
:10085000000041EB045170BD0EF0004E4EEA113124
:1008600014EB5C04C2BFD4EB0C0541EA045170BD2B
:1008700041F480114FF0000E013C90E645EA060E6F
:100880008DE60CEA135594EA0C0F08BF95EA0C0F9D
:100890003FF43BAF94EA0C0F0AD150EA01347FF4E5
:1008A00034AF95EA0C0F7FF425AF104619462CE7BC
:1008B00095EA0C0F06D152EA03353FF4FDAE10461F
:1008C000194622E750EA410618BF52EA43067FF470
:1008D000C5AE50EA41047FF40DAF52EA43057FF400
:1008E000EBAE12E74FF0FF3C06E000BF4FF0010C0B
:1008F00002E000BF4FF0010C4DF804CD4FEA410C6F
:100900007FEA6C5C4FEA430C18BF7FEA6C5C1BD03B
:1009100001B050EA410C0CBF52EA430C91EA030FBC
:1009200002BF90EA020F0020704710F1000F91EA19
:10093000030F58BF994208BF90422CBFD8176FEAE7
:10094000E37040F0010070474FEA410C7FEA6C5CB5
:1009500002D150EA013C07D14FEA430C7FEA6C5CBC
:10096000D6D152EA033CD3D05DF8040B704700BFE8
:100970008446104662468C461946634600E000BF36
:1009800001B5FFF7B7FF002848BF10F1000F01BD08
:100990004DF808EDFFF7F4FF0CBF012000205DF8D3
:1009A00008FB00BF4DF808EDFFF7EAFF34BF012058
:1009B00000205DF808FB00BF4DF808EDFFF7E0FFF1
:1009C00094BF012000205DF808FB00BF4DF808ED42
:1009D000FFF7CEFF94BF012000205DF808FB00BFA9
:1009E0004DF808EDFFF7C4FF34BF012000205DF88B
:1009F00008FB00BF4FEA410C7FEA6C5C02D150EA71
:100A0000013C0AD14FEA430C7FEA6C5C02D152EA06
:100A1000033C02D14FF0000070474FF001007047D7
:100A20004FEA4102B2F1E04324BFB3F5001CDCF110
:100A3000FE5C0DD901F0004C4FEAC0024CEA507048
:100A4000B2F1004F40EB830008BF20F00100704777
:100A500011F0804F21D113F13872BCBF01F000407A
:100A6000704741F480114FEA5252C2F11802C2F1AC
:100A7000200C10FA0CF320FA02F018BF40F001002D
:100A80004FEAC1234FEAD32303FA0CFC40EA0C00DF
:100A900023FA02F34FEA4303CCE77FEA625307D11C
:100AA00050EA01331EBF4FF0FE4040F44000704753
:100AB00001F0004040F0FE4040F40000704700BFED
:100AC00080F0004002E000BF81F0004142001FBF03
:100AD0005FEA410392EA030F7FEA226C7FEA236C0C
:100AE0006AD04FEA1262D2EB1363C1BFD218414001
:100AF00048404140B8BF5B42192B88BF704710F097
:100B0000004F40F4000020F07F4018BF404211F039
:100B1000004F41F4000121F07F4118BF494292EAA1
:100B2000030F3FD0A2F1010241FA03FC10EB0C00CD
:100B3000C3F1200301FA03F100F0004302D549425A
:100B400060EB4000B0F5000F13D3B0F1807F06D307
:100B500040084FEA310102F10102FE2A51D2B1F1FF
:100B6000004F40EBC25008BF20F0010040EA0300F4
:100B70007047490040EB000010F4000FA2F10102A1
:100B8000EDD1B0FA80FCACF1080CB2EB0C0200FA2B
:100B90000CF0AABF00EBC25052421843BCBFD04079
:100BA0001843704792F0000F81F4000106BF80F4F3
:100BB00000000132013BB5E74FEA41037FEA226CB6
:100BC00018BF7FEA236C21D092EA030F04D092F081
:100BD000000F08BF0846704790EA010F1CBF0020B5
:100BE000704712F07F4F04D1400028BF40F0004012
:100BF000704712F100723CBF00F50000704700F032
:100C0000004343F0FE4040F4000070477FEA226258
:100C100016BF08467FEA23630146420206BF5FEA29
:100C2000412390EA010F40F4800070474FF0000329
:100C300004E000BF10F0004348BF40425FEA000CF0
:100C400008BF704743F0964301464FF000001CE098
:100C500050EA010208BF70474FF000030AE000BFEE
:100C600050EA010208BF704711F0004302D540422C
:100C700061EB41015FEA010C02BF8446014600209E
:100C800043F0B64308BFA3F18053A3F50003BCFAB9
:100C90008CF2083AA3EBC25310DB01FA02FC634466
:100CA00000FA02FCC2F12002BCF1004F20FA02F26D
:100CB00043EB020008BF20F00100704702F1200260
:100CC00001FA02FCC2F1200250EA4C0021FA02F2C1
:100CD00043EB020008BF20EADC7070474FF0FF0CC6
:100CE0001CEAD0521EBF1CEAD15392EA0C0F93EAC1
:100CF0000C0F6FD01A4480EA010C400218BF5FEA63
:100D000041211ED04FF0006343EA501043EA5111D5
:100D1000A0FB01310CF00040B1F5000F3EBF4900CF
:100D200041EAD3715B0040EA010062F17F02FD2AD3
:100D30001DD8B3F1004F40EBC25008BF20F00100B6
:100D4000704790F0000F0CF0004C08BF49024CEACD
:100D5000502040EA51207F3AC2BFD2F1FF0340EA5F
:100D6000C250704740F400004FF00003013A5DDCD0
:100D700012F1190FDCBF00F000407047C2F1000211
:100D8000410021FA02F1C2F1200200FA02FC5FEAFE
:100D9000310040F1000053EA4C0308BF20EADC7048
:100DA000704792F0000F00F0004C02BF400010F4BA
:100DB000000F013AF9D040EA0C0093F0000F01F067
:100DC000004C02BF490011F4000F013BF9D041EA89
:100DD0000C018FE70CEAD15392EA0C0F18BF93EA8B
:100DE0000C0F0AD030F0004C18BF31F0004CD8D1B5
:100DF00080EA010000F00040704790F0000F17BF3C
:100E000090F0004F084691F0000F91F0004F14D081
:100E100092EA0C0F01D142020FD193EA0C0F03D1D9
:100E20004B0218BF084608D180EA010000F00040DC
:100E300040F0FE4040F40000704740F0FE4040F4B7
:100E4000400070474FF0FF0C1CEAD0521EBF1CEA56
:100E5000D15392EA0C0F93EA0C0F69D0A2EB030274
:100E600080EA010C49024FEA402037D04FF080530E
:100E700043EA111143EA10130CF000408B4238BFD3
:100E80005B0042F17D024FF4000C8B4224BF5B1AE1
:100E900040EA0C00B3EB510F24BFA3EB510340EA2F
:100EA0005C00B3EB910F24BFA3EB910340EA9C00DD
:100EB000B3EBD10F24BFA3EBD10340EADC001B014D
:100EC00018BF5FEA1C1CE0D1FD2A3FF650AF8B42F1
:100ED00040EBC25008BF20F0010070470CF0004CFE
:100EE0004CEA50207F32C2BFD2F1FF0340EAC25029
:100EF000704740F400004FF00003013A37E792F0EA
:100F0000000F00F0004C02BF400010F4000F013A47
:100F1000F9D040EA0C0093F0000F01F0004C02BF42
:100F2000490011F4000F013BF9D041EA0C0195E7AB
:100F30000CEAD15392EA0C0F08D142027FF47DAF44
:100F400093EA0C0F7FF470AF084676E793EA0C0F34
:100F500004D14B023FF44CAF08466EE730F0004C32
:100F600018BF31F0004CCAD130F000427FF45CAFC2
:100F700031F000437FF43CAF5FE700BF4FF0FF3C30
:100F800006E000BF4FF0010C02E000BF4FF0010C83
:100F90004DF804CD4FEA40024FEA41037FEA226C4C
:100FA00018BF7FEA236C11D001B052EA530C18BF6E
:100FB00090EA010F58BFB2EB030088BFC81738BFD3
:100FC0006FEAE17018BF40F0010070477FEA226CC1
:100FD00002D15FEA402C05D17FEA236CE4D15FEABD
:100FE000412CE1D05DF8040B704700BF84460846F1
:100FF0006146FFE70FB5FFF7C9FF002848BF10F1B2
:10100000000F0FBD4DF808EDFFF7F4FF0CBF0120F6
:1010100000205DF808FB00BF4DF808EDFFF7EAFF80
:1010200034BF012000205DF808FB00BF4DF808ED3B
:10103000FFF7E0FF94BF012000205DF808FB00BF30
:101040004DF808EDFFF7D2FF94BF012000205DF8B6
:1010500008FB00BF4DF808EDFFF7C8FF34BF0120C3
:1010600000205DF808FB00BF4FEA4002B2F1FE4FDE
:101070000FD34FF09E03B3EB12620DD94FEA00235A
:1010800043F0004310F0004F23FA02F018BF404233
:1010900070474FF00000704712F1610F01D142021A
:1010A00005D110F0004008BF6FF0004070474FF0CE
:1010B0000000704738B50E4B054618784FF47A7328
:1010C000B3FBF0F30B4A1068B0FBF3F000F01AFB2F
:1010D000044658B90F2D09D8024629464FF0FF3073
:1010E00000F0D0FA044B20461D6038BD012038BD09
:1010F00000000020A000002004000020074A08B5DE
:101100001368032043F01003136000F0A9FA0020D5
:10111000FFF7D0FF03F0C6F9002008BD0020024011
:10112000034A044B11681B780B441360704700BFDF
:10113000A001002000000020014B1868704700BF8C
:10114000A001002038B50446FFF7F6FF0546631CF2
:101150001EBF044B1B78E418FFF7EEFF401B8442D0
:10116000FAD838BD00000020F7B5002604460D4629
:101170000196FFF7E1FF236807469A68D20508D574
:101180000120A36A84F8246043F02003A36203B023
:10119000F0BD5A68D60503D4DB6A13F4700F3BD058
:1011A0003A4B02201E6801F0CDFA2368384A1969CB
:1011B000B6FBF0F01142374A4FD1DE6836490E4295
:1011C0004BD11969114259D1DA68344B1A4214BF14
:1011D0002923142300FB03F6019B9E4220D96B1C9C
:1011E00005D05DB1FFF7A8FFC01B854206D3019B68
:1011F00001330193F0E7681C0FD045B9A36A0320BF
:1012000043F00403A362002384F82430BFE7FFF710
:1012100093FFC01B8542F1D3226813689907EAD572
:101220006FF0120322681360A36A43F40073A36291
:10123000936803F46023B3F5602F25D1E3681BBBEB
:10124000A36A23F48073A362A06A10F480501BD1B8
:10125000A36A43F00103A36299E71969114203D11C
:10126000D9680E4A11420BD019690D4A114209D1B1
:10127000DB68134214BFFC235423ABE72923A9E7FF
:101280005423A7E7FC23A5E7002080E7A000002067
:10129000244992249224491224499200922449001C
:1012A000499224000368D86C70470000002373B58E
:1012B000019390F82430012B74D001234D6880F8FD
:1012C0002430062D02684FEA85030C6825D82B448C
:1012D0001F25566B053B9D4026EA050504FA03F3DE
:1012E0002B435363092C4FEA44038D682FD90726FB
:1012F0002344D1681E3B9E4021EA060105FA03F310
:101300000B43D360A4F11003012B2BD9002300223F
:1013100080F82420184602B070BD0C2D0BD82B4449
:101320001F25166B233B9D4026EA050504FA03F3AF
:101330002B431363D6E72B441F25D66A413B9D40C0
:1013400026EA050504FA03F32B43D362CAE707260E
:10135000116923449E4021EA060105FA03F30B4379
:101360001361CFE7104B9A4216D193681B02CDD47C
:101370009368102C43F400039360C7D10B4B0C4AC5
:101380001B68B3FBF2F20A2353430193019B002B2A
:10139000BCD0019B013BF8E7836A43F020038362E2
:1013A0000123B4E70223B5E700240140A000002098
:1013B00040420F00002373B50193036804469A6806
:1013C000D20702D5002002B070BD9A6842F0010237
:1013D0009A60124B124A1B68B3FBF2F30193019B14
:1013E000C3B9FFF7A9FE064623689D6815F00105FD
:1013F000E8D1FFF7A1FE801B0228F5D9A36A84F883
:10140000245043F01003A362E36A012043F0010378
:10141000E362D8E7019B013BE0E700BFA0000020AA
:1014200040420F0090F8243010B5012B044654D0F0
:10143000012380F82430FFF7BDFF002849D1A36ABB
:10144000274A23F4407323F0010343F48073A3621B
:101450002368934204D123494A6812F4702F2ED195
:10146000A26A22F48012A2625A68520541BFA26A9F
:1014700022F4405242F48052A262A26A12F48052D4
:101480001CBFE26A22F00602E262002284F82420F5
:101490006FF002021A609A6802F46022B2F5602FBF
:1014A00013D10F4A934205D1A2F58062526812F41B
:1014B000702F0AD19A6842F4A0029A6010BDA26A05
:1014C00042F48012A2624A68CFE79A6842F480121E
:1014D000F3E7002384F8243010BD022010BD00BFC4
:1014E000002801400024014038B5036804469A688A
:1014F000D20701D4002038BD9A6822F001029A6018
:10150000FFF71AFE054623689B68DB07F2D5FFF755
:1015100013FE401B0228F6D9A36A012043F01003F2
:10152000A362E36A43F00103E36238BD70B5044689
:10153000002871D0836A23B9C36280F8243003F095
:1015400001F82046FFF7D0FFA36A13F0100FA36A3B
:1015500064D1002862D1E16923F48853626823F0E2
:10156000020343F002030A43A168A362E368B1F5F2
:10157000807F42EA430238D0012914BF06464FF467
:1015800080766569012D07D1002B30D1A369013B1D
:1015900046EA433545F400662368B1F5807F5D680F
:1015A00025F4694545EA06055D609E681D4D05EA1E
:1015B000060545EA02059D6001D0012920D1216977
:1015C00001390905DD6A25F470052943D962996856
:1015D000154B0B409A4215D10023E362A36A23F016
:1015E000030343F00103A36270BD0E46C9E7A36A7B
:1015F00043F02003A362E36A43F00103E362CBE715
:101600000021DFE7A36A23F0120343F01003A36273
:10161000E36A43F00103E362012070BD43F010036D
:10162000A362F9E7FDF7E1FFFE0E1FFF90F82430FB
:1016300010B5012B044611D0012380F82430FFF7A8
:1016400053FF38B9A36A23F4885323F0010343F00E
:101650000103A362002384F8243010BD022010BDD2
:10166000074A0002D36800F4E06023F4E0631B043F
:101670001B0C43F0BF6343F400330343D360704754
:1016800000ED00E0174B30B5DC68C4F30224C4F170
:101690000703251D042B28BF0423062D4FF0010549
:1016A00098BF002405FA03F303F1FF3388BF033C1E
:1016B0001940A14005FA04F4013C2240002842EA06
:1016C00001024FEA0212AFBF00F16040064B00F08A
:1016D0000F00D2B2A5BFD2B200F561401A5480F813
:1016E000002330BD00ED00E014ED00E001234209CD
:1016F00000F01F0003FA00F0014B43F8220070478E
:1017000000E100E00138B0F1807F0AD2F021064B01
:10171000064A586082F823100020072298601A6059
:1017200070470120704700BF10E000E000ED00E0CE
:10173000044B04281A680CBF42F0040222F0040291
:101740001A60704710E000E0704708B5FFF7FCFF33
:1017500008BD00002DE9F74F00221646654BDFF863
:10176000A4E1DFF8A4C14FF001080C6808FA06F8FC
:1017700008EA0404A0457FD14D68122D00F0AF8027
:1017800000F28880022D00F0A7807CD8002D00F0A8
:101790008E80012D00F09E804FF00F09FF2C93BF2B
:1017A000824606F18045083DD0F800B092BFB500F2
:1017B000D0F804B0AD0009FA05F82BEA080802FADF
:1017C00005F588BF00F1040A48EA0505CAF800508B
:1017D000D1F804A01AF0805F4ED0474D464FAD6956
:1017E00026F0030845F00105BD61BD6908F1804898
:1017F00005F00105019508F5803806F0030B019D01
:101800004FEA8B0BD8F8085009FA0BF925EA0909B9
:101810003A4DA84268D005F58065A84266D005F526
:101820008065A84264D005F58065A8420CBF0325F9
:10183000042505FA0BF545EA0905C8F808501D68A6
:101840001AF4803F14BF2543A5431D605D681AF458
:10185000003F14BF2543A5435D609D681AF4801FB7
:1018600014BF2543A5439D60DD681AF4001F14BF13
:101870002C4325EA0404DC600136102E7FF473AF9C
:1018800003B0BDE8F08F032D22D0112D84D1CA689A
:10189000043281E71A4FBD4209D012D8DFF86C90AC
:1018A0004D4504D009F580394D457FF475AF8A6800
:1018B000C2B1012A0CBFC0F81080C0F81480082201
:1018C0006AE77545F3D06545F1D0DFF84490EBE762
:1018D000002261E7CA685FE7CA6808325CE7CA6845
:1018E0000C3259E7042257E70025A2E70125A0E7BB
:1018F00002259EE70004014000100240000801405C
:101900000000211000003110000032100000111002
:10191000000022108368194214BF01200020704784
:101920000AB1016170470904FBE7C3685940C1600F
:1019300070470268536913F480630DD06FF48063BD
:1019400053610423202203640023036380F83C30A6
:1019500080F83D2001207047184670472DE9F84374
:10196000044617469946C1F307488EB22568B8F178
:10197000010F0CBF6B69AB6936EA030314BF01208A
:10198000002008B9BDE8F8836B695A0512D52B68A9
:10199000202243F400732B606FF480636B61042397
:1019A000236400230120236384F83C3084F83D2025
:1019B000BDE8F8837B1CD9D04FB9002320222363D4
:1019C00084F83C3084F83D200320BDE8F883FFF71D
:1019D000B3FBA0EB09008742C8D2EEE72DE9F8433C
:1019E000044690461F46089EC1F307498DB22368FE
:1019F000B9F1010F0CBF5B699B6935EA03030CBFAA
:101A000001230023434502D00020BDE8F8837B1C5E
:101A1000EDD05FB900232022236384F83C3084F8A2
:101A20003D20032084F83E30BDE8F883FFF784FBB7
:101A3000801B8742DBD2EDE770B504460D461646A3
:101A400023685B691B0601D5002070BD2046FFF7A7
:101A500070FFA8B96A1CF3D065B9236C202243F04B
:101A60002003236400230320236384F83C3084F89C
:101A70003D2070BDFFF760FB801B8542E0D2ECE7A4
:101A8000012070BD2DE9FF41154602689846136894
:101A90000B9E43F4807313600F4600960A9B00224E
:101AA0004FF001110446FFF799FF68B9236807F06A
:101AB000FE071F610A9A33461A492046FFF74EFF78
:101AC00030B1236C042B18D0032004B0BDE8F081A2
:101AD000236803905A690A9903929B6932460393DB
:101AE0002046039BFFF7A8FF48B1236C042BEBD1E2
:101AF0002268136843F4007313600120E5E7B8F12E
:101B0000010F236802D1EDB21D61DEE72A0A1A61D6
:101B10000A9932462046FFF78FFF0028E5D1236857
:101B2000F1E700BF020001002DE9FF41984603687C
:101B300016461A680B9D42F480621A601A680F46B6
:101B400042F480721A604FF0011100950A9B002246
:101B50000446FFF743FF80B92368FFB207F0FE0297
:101B60001A612D492B460A9A2046FFF7F7FE40B12D
:101B7000236C042B01D1012000E0032004B0BDE858
:101B8000F081236803905A690A9903929B692A4657
:101B900003932046039BFFF74FFF40B1236C042BB8
:101BA000EBD12268136843F400731360E3E7B8F1E4
:101BB000010F236824D1F6B21E612A460A992046F5
:101BC000FFF73AFF02460028E8D1216820460B685B
:101BD00043F480730B6000950A9B4FF00111FFF7EF
:101BE000FDFE0028C9D1236847F001071F610A9A4A
:101BF0002B4609492046FFF7B1FE0028B8D1BDE7C2
:101C0000320A1A610A992A462046FFF715FF002872
:101C1000C4D12368CFE700BF0200010070B50446BD
:101C20000D4616462068436913F0400301D000209A
:101C300070BD4269D2060BD56FF0100242612022BE
:101C4000236484F83C302363012084F83D2070BD78
:101C50005DB9236C032043F020032364202384F820
:101C60003D30002384F83C3070BDFFF765FA801BDF
:101C70008542D7D2EDE770B504460D461646236877
:101C80005B695B0701D5002070BD2046FFF751FE60
:101C9000A8B96A1CF3D065B9236C202243F0200355
:101CA000236400230320236384F83C3084F83D2020
:101CB00070BDFFF741FA801B8542E0D2ECE70120BE
:101CC00070BD000038B5044608B9012038BD90F851
:101CD0003D3003F0FF021BB980F83C2002F052FCBB
:101CE0002423226884F83D30136823F00103136035
:101CF00000F090FC63682F4A934230D82E4A9042FD
:101D0000E3D92E4A2168B0FBF2F24A6001320A623E
:101D1000284A0138934232D85B00B0FBF3F0431CF1
:101D2000C3F30B03042B38BF0423CB61226AE3699E
:101D3000002013430B60E268236913438B60A269A0
:101D400063691343CB600B6843F001030B602023EE
:101D5000206484F83D30206384F83E0038BD184A82
:101D60009042B2D9154D4FF49672B0FBF5F521684B
:101D70006A434D604FF47A75B2FBF5F2C6E7A2688C
:101D800052B903EB4303B0FBF3F0431CC3F30B0363
:101D90006BB143F40043C8E719225343B0FBF3F09F
:101DA000431CC3F30B0313B143F44043BDE70123CA
:101DB000BBE700BFA08601007F841E0040420F00E9
:101DC000FF083D002DE9F34704469A4688469146B0
:101DD0000C9EFFF7B1F994F83D300546202B03D057
:101DE000022002B0BDE8F0870090192301223E498D
:101DF0002046FFF7F3FD0028F2D194F83C30012B88
:101E0000EED0012384F83C30236800271A6841464D
:101E1000D20758BF1A6820465CBF42F001021A6020
:101E20001A6822F400621A60212384F83D304023AE
:101E300084F83E300A9B27646362BDF82C3001951C
:101E400063852A4B0096E362638D4A462385534699
:101E5000FFF718FE00282AD0236C84F83C70042B6E
:101E600007D10120BDE7FFF7E7FD20B1236C042B6C
:101E700034D00320B5E7616A27684B1C63620B7896
:101E8000228D3B61638D501E013B9BB263857B6954
:101E900080B25B0720850AD548B18B1C63624B7802
:101EA000023A3B61638D2285013B9BB26385238DA2
:101EB0002A4631462046002BD5D1FFF7DCFE00280C
:101EC000D4D12268136843F400731360202384F88C
:101ED0003C0084F83D3084F83E0082E722681368B5
:101EE00043F400731360BCE7020010000000FFFF22
:101EF0002DE9F047044686B09A460D469146109F5C
:101F0000FFF71AF994F83D300646202B04D002253D
:101F1000284606B0BDE8F0870090192301228149C8
:101F20002046FFF75BFD0028F1D194F83C30012BEF
:101F3000EDD0012384F83C3023684FF000081A6884
:101F40002946D20758BF1A6820465CBF42F00102FA
:101F50001A601A6822F400621A60222384F83D3065
:101F6000402384F83E300E9BC4F840806362BDF885
:101F70003C30019663856C4B0097E362638D4A4663
:101F800023855346FFF7D0FD054630B1236C84F816
:101F90003C80042B3DD10125BAE7228D236892B9FC
:101FA00002905A6902929A690292029A1A6842F45D
:101FB00000721A60202384F83D30002384F83E30FC
:101FC00084F83C30A4E7012A25D11A6822F4806203
:101FD0001A6072B6236803905A6903929A69039251
:101FE000039A1A6842F400721A6062B6DFF83C8104
:101FF000238D002BDED0032B77D8012B27D132463F
:1020000039462046FFF70AFE00283FD0236C202BDC
:10201000C1D103257CE7022A1A680ED142F400627E
:102020001A6072B6236804905A6904929A690492FD
:10203000049A1A6822F48062D6E742F480621A6039
:1020400005905A6905929B690593059BCEE7022B83
:1020500000963B464FF000024146204624D1FFF750
:10206000BDFC0028D5D172B623681A6842F400720C
:102070001A60626A1B69511C61621370238D013BF7
:102080002385638D013B9BB2638562B6636A5A1CEC
:102090006262226812691A70238D013B2385638D69
:1020A000013B9BB26385A3E7FFF798FC024600283B
:1020B000AFD121680B6823F480630B6072B6636A4A
:1020C0002046591C6162216809691970238D0096A8
:1020D000013B2385638D4146013B9BB263853B46B3
:1020E000FFF77CFC0028BFD093E7324639462046F4
:1020F000FFF794FD002889D1636A5A1C6262226846
:1021000012691A70238D2268013B2385638D013B80
:102110009BB2638553695B077FF56AAF636A591C9D
:102120006162B7E7020010000000FFFF0400010039
:1021300003682DE9F341DB07054610D42B689F07A0
:102140005ED42B68190700F195802B685A0700F1BF
:10215000BF80EA69002A40F02D81002014E0904CF5
:10216000636803F00C03042B07D0636803F00C03CF
:10217000082B0CD16368DE0309D523689C03DDD5E9
:102180006B68002BDAD1012002B0BDE8F0816B68EA
:10219000B3F5803F10D1236843F480332360FEF70A
:1021A000CBFF064623689803C8D4FEF7C5FF801B03
:1021B0006428F7D90320E7E79BB9236823F4803329
:1021C0002360236823F480232360FEF7B5FF0646CF
:1021D00023689903B2D5FEF7AFFF801B6428F7D9B7
:1021E000E8E7B3F5A02F236803D143F480232360ED
:1021F000D1E723F480332360236823F48023CDE7E1
:10220000674C636813F00C0F07D0636803F00C038E
:10221000082B10D16368DA030DD423689B0702D51D
:102220002B69012BAFD123686A6923F0F80343EAD5
:10223000C203236085E72A695A4B6AB101221A60FA
:10224000FEF77AFF064623689F07ECD4FEF774FF7B
:10225000801B0228F7D9ADE71A60FEF76DFF06462E
:10226000236898077FF56DAFFEF766FF801B022895
:10227000F6D99FE7AA694A4C4B4BDAB101221A60A2
:10228000FEF75AFF0646636A9B070DD54FF4FA52D4
:10229000464B1B68B3FBF2F3019300BF019B5A1E30
:1022A0000192002BF9D150E7FEF746FF801B022870
:1022B000E9D97FE71A60FEF73FFF0646636A9F078A
:1022C0007FF543AFFEF738FF801B0228F6D971E790
:1022D000334CE369D80024D40127E36943F08053E9
:1022E000E361E36903F080530093009B304E336851
:1022F000D90518D5EB68012B26D1236A43F00103D9
:102300002362FEF719FF41F288368046236A9B0755
:102310003FD5002F3FF41DAFE36923F08053E36105
:1023200017E70027E2E7336843F480733360FEF772
:1023300003FF80463368DA05DCD4FEF7FDFEA0EB30
:1023400008006428F6D935E7ABB9236A41F288382A
:1023500023F001032362236A23F004032362FEF7C0
:10236000EBFE0646236A9807D3D5FEF7E5FE801BF1
:102370004045F7D91EE7052B236A03D143F0040338
:102380002362BAE723F001032362236A23F00403E4
:10239000B6E7FEF7D1FEA0EB0800B042B6D909E7D8
:1023A000001002400000424280044242A00000208F
:1023B00000700040224C636803F00C03082B3FF4CC
:1023C000E2AE00231F4E022A33602BD1FEF7B4FE8B
:1023D0000746236899011FD42B6AB3F5803F05D1C6
:1023E0006268A96822F400320A436260696A62681E
:1023F0000B4322F474121343636001233360FEF72E
:102400009BFE054623689A013FF5A7AEFEF794FEB2
:10241000401B0228F6D9CDE6FEF78EFEC01B02282F
:10242000D7D9C7E6FEF788FE054623689B017FF5EE
:1024300094AEFEF781FE401B0228F6D9BAE600BF33
:10244000001002406000424230B5194B87B002AC28
:1024500003F11005224618685968083303C2AB42DD
:102460001446F7D101238DF80430022311498DF869
:1024700005304B6803F00C02082A17D1C3F38342DE
:1024800006A80244DB0312F8102C0CD54B680A484E
:10249000C3F34043504306AA134413F8143CB0FB63
:1024A000F3F007B030BD05485043FAE70248F8E7BB
:1024B000C06B00080010024000127A0000093D00C5
:1024C0004D4A2DE9F0411368054603F007038B429E
:1024D0000E4628D32A68910732D4D20738D4464A08
:1024E000136803F007039E4273D32A68434C12F02B
:1024F000040F79D1130706D563682A6923F4605362
:1025000043EAC2036360FFF79FFF63683C4AC3F37B
:102510000313D35CD8403B4B18600020FEF7CAFD84
:102520000020BDE8F081136823F007030B4313601C
:10253000136803F007039942CCD00120BDE8F08175
:102540002E49A8684B6823F0F00303434B60C4E7AF
:102550006A682A4C012A23681CD113F4003FECD08E
:10256000636841F2883823F0030313436360FEF786
:10257000E3FD6B680746012B14D1636803F00C037D
:10258000042BACD0FEF7D8FDC01B4045F5D9032085
:10259000BDE8F081022A02D113F0007FDFE713F0DB
:1025A000020FDCE7022B0FD1636803F00C03082B4A
:1025B00095D0FEF7C1FDC01B4045F5D9E7E7FEF712
:1025C000BBFDC01B4045E2D8636813F00C0FF6D189
:1025D00085E7136823F0070333431360136803F0A0
:1025E00007039E42A9D180E76368E96823F4E063AA
:1025F0000B4363607EE700BF0020024000100240F2
:10260000456C0008A0000020014B1868704700BF0F
:10261000A0000020044B054A5B68C3F30223D35C8F
:10262000034A1068D840704700100240556C0008FB
:10263000A0000020044B054A5B68C3F3C223D35CAF
:10264000034A1068D840704700100240556C0008DB
:10265000A000002003682DE9F341D907054620D5E5
:10266000354CE369DA0032D40127E36943F0805343
:10267000E361E36903F080530193019B2F4E3368BC
:10268000DB0526D5236A13F4407336D1236A6A68C2
:1026900023F44073134323621FB1E36923F0805393
:1026A000E3612868830706D5234AA968536823F4A1
:1026B00040430B43536010F010001BD01E4AE968E2
:1026C0005368002023F480030B43536012E000277B
:1026D000D4E7336843F480733360FEF72DFD804602
:1026E0003368D805CED4FEF727FDA0EB0800642898
:1026F000F6D9032002B0BDE8F0816A6802F44072A6
:102700009342C3D001200E4A236A1060002023F4B4
:10271000407110602162D907B8D5FEF70DFD41F276
:1027200088380646236A9A07B0D4FEF705FD801B59
:102730004045F7D9DDE700BF0010024000700040BF
:102740004004424270B50446354B86B002AD03F1F9
:1027500010062A4618685968083303C2B342154662
:10276000F7D101238DF8043002239C428DF8053007
:1027700047D0102C17D0012C4FD140F20231294AFA
:10278000136A1940B1F5817F44D003F44073B3F567
:10279000007F2DD149F64040536A13F0020F08BF65
:1027A000002006B070BD1F4B5968186810F080708B
:1027B000F7D0C1F3834206A8024412F8100CCA03F2
:1027C00041BF5A6806A9C2F34042521844BF12F8EA
:1027D000141C154A5B684CBFB2FBF1F2134A5B0252
:1027E00002FB00F0DDD403234000B0FBF3F0D8E798
:1027F000B3F5407F11D113684FF2244013F4003F2A
:10280000CDE7FFF717FF074B5B68C3F38133013355
:102810005B00EAE74FF40040C3E70020C1E700BFD8
:10282000D06B00080010024000127A0000093D0041
:10283000036A70B523F001030362036A4468826986
:102840000D6822F073022A438D6823F002032B43A4
:102850000A4DA8420BD1CD6823F008032B438E69A3
:102860004D6924F44074354323F004032C43446041
:1028700082614A684263036270BD00BF002C014060
:10288000036A70B523F480730362036A4468C26903
:102890000D6822F073022A438D6823F4007343EA23
:1028A00005230B4DA8420DD1CD6823F4006343EA04
:1028B00005238E694D6924F44054354323F4806325
:1028C00044EA05144460C2614A68C263036270BD91
:1028D000002C0140036A30B523F480530362036A7D
:1028E0004468C2690D6822F4E64242EA05228D6816
:1028F00023F4005343EA0533064DA84202BF4D6955
:1029000024F4804444EA85144460C2614A68026445
:10291000036230BD002C01400223026880F83D3084
:10292000136843F001031360012380F83D30002059
:10293000704703680020DA6842F00102DA601A6822
:1029400042F001021A6070477047704790F83C30BF
:1029500070B5012B4FF002031CD0012280F83D30EE
:10296000036880F83C209A6822F47F4222F07702C4
:102970009A600A68402A79D019D8102A00F093800A
:102980000AD8002A00F08980012380F83D30002316
:1029900080F83C30184670BD202A00F08A80302A2A
:1029A000F2D19A6822F0700242F0370236E0702AC3
:1029B00036D01BD8502A42D0602AE5D11C6A4D6817
:1029C00024F01004CE681C6299691A6A21F47041DF
:1029D00022F0A00242EA051241EA063199611A6228
:1029E0009A6822F0700242F0670217E0B2F5805F49
:1029F00011D0B2F5005FC7D18A684D689C68C9687C
:102A00002A4324F47F4442EA012222439A609A68CE
:102A100042F4804202E09A6822F007029A60B3E72B
:102A20008A684D689C68C9682A4324F47F4442EA56
:102A3000012222439A609A6842F07702EEE74C68DE
:102A4000CE68196A1D6A21F00A0125F001051D6290
:102A50009A69214322F0F00242EA06129A61196251
:102A60009A6822F0700242F05702D7E74C68CE68AD
:102A7000196A1D6A21F00A0125F001051D629A6993
:102A8000214322F0F00242EA06129A6119629A6822
:102A900022F0700242F04702C0E79A6822F070020A
:102AA00042F00702BAE79A6822F0700242F0170279
:102AB000B4E79A6822F0700242F02702AEE790F87D
:102AC0003C30012B1CD00C2918D8DFE801F0071787
:102AD00017170E17171711171717140003685B6BDA
:102AE000002280F83C201846704703689B6BF7E78C
:102AF0000368DB6BF4E703681B6CF1E70023EFE787
:102B00000223F0E77047704770477047036810B5BD
:102B10001A69044691070ED5DA6892070BD56FF053
:102B200002021A6101229B6902779B0777D000F0AD
:102B3000C7FE0023237723681A69500710D5DA6887
:102B400051070DD56FF004021A6102229B692277AA
:102B500013F4407F204668D000F0B2FE00232377B4
:102B600023681A6912070FD5DA6810070CD56FF0C1
:102B700008021A610422DB692277990720465AD09D
:102B800000F09EFE0023237723681A69D20610D531
:102B9000DA68D0060DD56FF010021A610822DB69E1
:102BA000227713F4407F20464BD000F089FE0023AB
:102BB000237723681A69D10708D5DA68D20705D5C3
:102BC0006FF0010220461A61FFF79CFF23681A6923
:102BD000100608D5DA68110605D56FF08002204688
:102BE0001A6100F004FB23681A69520608D5DA68F6
:102BF000500605D56FF0400220461A61FFF785FFA9
:102C000023681A69910622D5DA6892061FD56FF0FB
:102C100020022046BDE810401A6100F0E7BAFFF735
:102C200072FF2046FFF770FF83E7FFF76CFF204637
:102C3000FFF76AFF92E7FFF766FF2046FFF764FFA2
:102C4000A0E7FFF760FF2046FFF75EFFAFE710BD8C
:102C50001A4A036890420AD0B0F1804F07D0A2F51B
:102C60009432904203D002F58062904215D14A68B6
:102C700023F070031343114A90420AD0B0F1804F01
:102C800007D0A2F59432904203D002F580629042C0
:102C900003D1CA6823F4407313434A6923F08003C5
:102CA000134303608B68C3620B688362034B9842D3
:102CB00004BF0B690363012343617047002C01408B
:102CC00010B50446A0B190F83D3003F0FF021BB9E7
:102CD00080F83C2001F078FC0223206884F83D3025
:102CE000211DFFF7B5FF0123002084F83D3010BD02
:102CF000012010BD10B50446A0B190F83D3003F09E
:102D0000FF021BB980F83C20FFF71EFE022320685B
:102D100084F83D30211DFFF79BFF0123002084F83C
:102D20003D3010BD012010BD10B50446A0B190F893
:102D30003D3003F0FF021BB980F83C20FFF705FE91
:102D40000223206884F83D30211DFFF781FF012315
:102D5000002084F83D3010BD012010BD036A70B51D
:102D600023F010030362036A446882690D6822F449
:102D7000E64242EA05228D6823F0200343EA051368
:102D80000B4DA8420DD1CD6823F0800343EA051313
:102D90008E694D6924F44064354323F0400344EACE
:102DA0008504446082614A688263036270BD00BF2B
:102DB000002C014038B590F83C300446012B4FF010
:102DC000020025D0012384F83D0084F83C300C2A11
:102DD00018D8DFE802F0071717171E1717172F1755
:102DE000171740002068FFF723FD236809699A69D7
:102DF00042F008029A619A6922F004029A619A6983
:102E00000A439A610123002084F83D3084F83C0095
:102E100038BD2068FFF7A2FF236809699A6942F468
:102E200000629A619A6922F480629A619A6942EA20
:102E30000122E6E72068FFF723FD23680969DA69C4
:102E400042F00802DA61DA6922F00402DA61DA6932
:102E50000A43DA61D6E72068FFF73CFD2368096979
:102E6000DA6942F40062DA61DA6922F48062DA61D6
:102E7000DA6942EA0122ECE770B5046A124E24F0E6
:102E800001040462B0428469056A0AD0B0F1804F3F
:102E900007D0A6F59436B04203D006F58066B0425E
:102EA0000FD124F0030422431B0122F0F002DBB215
:102EB00025F00A0501F00A011A43294382610162E3
:102EC00070BD44F00102EFE7002C0140F8B590F826
:102ED0003C300446012B0D464FF0020019D001236F
:102EE00084F83D0084F83C30A2B9CB68206806C95C
:102EF000FFF7C2FF2368A9689A6922F00C029A6161
:102F00009A690A439A610123002084F83D3084F8CD
:102F10003C00F8BD042A8E68236882C9E8681FD186
:102F20001A6A000322F010021A629A691D6A22F4DA
:102F3000407242EA072280B222F470420901024341
:102F400001F0A00125F0A00001439A6119629A697D
:102F500022F440629A619A6942EA06269E61D2E7AB
:102F6000082A1A6A1CD122F480721A62DA690001F6
:102F700022F003021D6A3A43C0B222F0F0020902B5
:102F8000024301F4206125F420600143DA611962F3
:102F9000DA6922F00C02DA61DA691643DE61B2E71F
:102FA00022F480521A62DA69000322F440721D6A28
:102FB00042EA072222F4704280B20903104301F46E
:102FC000005125F400521143D8611962DA6922F4E4
:102FD0004062DA61DA6942EA0626DFE710B50124C9
:102FE000036A8C4023EA04030362036A8A401A439B
:102FF000026210BD10B5044601220068FFF7EEFF23
:103000002368064A0020934202BF5A6C42F40042F1
:103010005A641A6842F001021A6010BD002C014087
:1030200010B5044600220068FFF7D8FF2368124A53
:1030300093420DD141F21112196A114208D140F2A6
:103040004442196A114202BF5A6C22F400425A6487
:1030500041F21112196A114208D140F24442196A30
:10306000114202BF1A6822F001021A6001230020F7
:1030700084F83D3010BD00BF002C014010B504465F
:103080000C290DD8DFE801F0070C0C0C170C0C0C08
:103090001C0C0C0C21000268D36843F00203D360BF
:1030A00020680122FFF79AFF22680020136843F08E
:1030B0000103136010BD0268D36843F00403EEE718
:1030C0000268D36843F00803E9E70268D36843F075
:1030D0001003E4E710B50424036A8C4023EA0403D8
:1030E0000362036A8A401A43026210BD10B50446A7
:1030F00004220068FFF7EEFF236800205A6C42F4B8
:1031000000425A641A6842F001021A6010BD10B5FC
:10311000044600220068FFF7DDFF41F21112236828
:10312000196A114208D140F24442196A114202BFA1
:103130005A6C22F400425A6441F21112196A114287
:1031400008D140F24442196A114202BF1A6822F0C3
:1031500001021A60002010BDFFF7D9BF90F83C3083
:10316000012B1FD0CB688A6823F4407313434A684D
:1031700023F4806313430A6823F4006313430A694A
:1031800023F4805313434A6923F4005313438A6999
:1031900023F44043134302685364002380F83C3017
:1031A000184670470220704790F83C3010B5012B4C
:1031B0004FF0020318D080F83D3003680C685A685D
:1031C000496822F070025A605A6822435A609A682D
:1031D00022F080029A609A680A439A60012380F87C
:1031E0003D30002380F83C30184610BD70477047D2
:1031F0002DE9F0470568C2682B69016923F4405343
:1032000013432B618368EA680B43416922F4B0528F
:1032100022F00C020B431343EB606B69826923F4C9
:10322000407313436B61404B81469D424FF019043C
:1032300046D1FFF7FFF904FB00F3D9F804604FF023
:103240006408B600B3FBF6F3B3FBF8F31E01FFF717
:10325000F1F96043D9F804309B00B0FBF3F7FFF7B6
:10326000E9F96043D9F804309B00B0FBF3F3B3FBFA
:10327000F8F308FB13731B013233B3FBF8F303F0CD
:10328000F007FFF7D7F96043D9F804209200B0FBAC
:10329000F2FAFFF7CFF96043D9F804309B00B0FB96
:1032A000F3F3B3FBF8F308FB13A31B013233B3FBB7
:1032B000F8F303F00F033B433344AB60BDE8F08702
:1032C000FFF7A8F904FB00F3D9F804604FF0640895
:1032D000B600B3FBF6F3B3FBF8F31E01FFF79AF960
:1032E0006043D9F804309B00B0FBF3F7FFF792F985
:1032F0006043D9F804309B00B0FBF3F3B3FBF8F361
:1033000008FB13731B013233B3FBF8F303F0F00730
:10331000FFF780F96043D9F804209200B0FBF2FA7D
:10332000FFF778F9B7E700BF00380140F8B5044669
:103330000E4617461D4621680B6836EA030301D185
:103340000020F8BD6B1CF7D095B923680320DA681C
:1033500022F4D072DA605A6922F001025A61202305
:1033600084F8393084F83A30002384F83830F8BDD6
:10337000FDF7E2FEC01B8542DDD2E6E710B504464C
:1033800040B390F8393003F0FF021BB980F83820C1
:1033900001F098F92423226884F83930D368204654
:1033A00023F40053D360FFF723FF236800201A693A
:1033B00022F490421A615A6922F02A025A61DA68AC
:1033C00042F40052DA602023E06384F8393084F854
:1033D0003A3010BD012010BD2DE9F0411F4690F894
:1033E00039300446202B0D4690464ED1002949D055
:1033F000002A47D090F83830012B46D0012380F8BE
:1034000038300023C363212380F83930FDF794FE60
:103410000646A4F82480A4F82680E38C9BB26BB9FE
:103420003B46324640212046FFF780FFA8B92023C3
:1034300084F8380084F83930BDE8F081E38C3246F6
:10344000013B9BB2E384A3688021B3F5805F2046F3
:103450003B460ED1FFF76AFF10B10320BDE8F081B3
:103460002B882268C3F308035360236943B90235EC
:10347000D3E7FFF75BFF0028EFD123682A785A6073
:103480000135CAE70120BDE8F0810220BDE8F081E6
:103490002DE9F0411F4690F83A300446202B0D46A6
:1034A000904651D100294CD0002A4AD090F83830AB
:1034B000012B49D0012380F838300023C363222335
:1034C00080F83A30FDF738FE0646A4F82C80A4F8C0
:1034D0002E80E08D80B230B9202384F8380084F843
:1034E0003A30BDE8F081E38D3246013B9BB2E38583
:1034F000A3682021B3F5805F20463B4612D1FFF739
:1035000015FF10B10320BDE8F081236822695B68D4
:1035100022B9C3F3080325F8023BDAE7DBB225F84A
:10352000013BD6E7FFF702FF0028EBD123682169B2
:103530006A1C5B6811B92B701546CAE703F07F035C
:10354000F9E70120BDE8F0810220BDE8F08100002C
:103550007FB50023ADF8143003291CD8DFE801F053
:10356000021B1719052343703223017002930223B3
:103570008901019305AB8DF815100093F422012306
:10358000EE210648FEF71EFC07B05DF804FB0E2393
:10359000E9E71A23E7E70823E5E700BFF801002081
:1035A0002DE9F043002401274FF032098BB00AAD1A
:1035B00005F8184D046006463B46D022EF21CDF8B1
:1035C00008908DE8A0001A48FEF792FC9DF8103094
:1035D0004FF01608553B18BF0123424686F83A3093
:1035E0002146284601F0B0FBAA22EF218DE82003F6
:1035F0003B460F48FEF77CFC214622466B18685C70
:103600005B7843EA00231BB2735201339BB2012B58
:1036100001F1020198BF02221829EFD186F83A2061
:10362000022106F13800FFF793FF0BB0BDE8F083ED
:10363000F80100202E23F0B50125322787B006AC13
:103640000F4E04F8043DF4222B46EE2102978DE83C
:1036500030003046FEF7B6FB0520FDF773FD022370
:103660000297019300942B46F622EF213046FEF795
:103670003FFCBDF8140040BA80B207B0F0BD00BFF7
:10368000F801002038B504468069FDF7EDFC638938
:10369000B4F91420C01A23895843C313B4F9120093
:1036A0001A44C00290FBF2F0184420630830001165
:1036B000FDF7C0FA0849FDF711FB08490546FDF77B
:1036C000B5FC20B906492846FDF7BAFC10B1032322
:1036D00084F83A30284638BDCDCCCC3D000020C21D
:1036E0000000AA420023F0B589B0ADF81C300124D7
:1036F0008DF81E3032273423174E07ADADF8140075
:103700008DF81C30F4222346EE2102970194009597
:103710003046FEF757FB9DF81500FDF713FD032318
:103720000297019300952346F622EF213046FEF7DB
:10373000DFFB9DF81D309DF81C001B0203EB0043CE
:103740009DF81E0003449DF81400C0F1080043FAE0
:1037500000F009B0F0BD00BFF80100204FF40052A6
:10376000F0B54FF48035066BB0F90410A6F57A6613
:10377000714306FB06F391FBF2F1B0F90C201B1329
:103780005A4392FBF5F204251144023191FBF5F105
:10379000C28801F500415143B0F90E20B0F9027022
:1037A0005A434FF400637E4392FBF3F296FBF3F629
:1037B000B0F9003090F83840324402EB8302A24066
:1037C000023292FBF5F2C069C90B801A4CF25032FA
:1037D00042FA04F343434EBFB3FBF1F35B00B3FB88
:1037E000F1F34FF4807048BF5B0093FBF0F040F6BC
:1037F000DE324FF48031404342430648584390FB49
:10380000F1F000EB2240102200F6CF6090FBF2F0C6
:103810001844F0BD43E3FFFF38B50546C06AFDF725
:1038200009FA1749FDF70EFBFCF7F6FD10A3D3E9E3
:10383000002302F065F802460B4600201149FCF710
:103840008BFC0DA3D3E90023FCF73AFEFDF7E8F863
:103850000D490446FDF7EAFB20B90C492046FDF767
:10386000EFFB10B1052385F83A30204638BD00BF84
:103870006C45D9CC955BC83F0000000040A5E540F1
:1038800080E6C5470000F03F0000FAC300A00C46E8
:1038900010B50446FFF7CEFEFDF7CCF9A061204637
:1038A000FFF7F0FEA062A06BFFF71CFFE06120466F
:1038B000FFF754FFE0622046FFF7AEFF606310BDE4
:1038C000037F70B5082B054640D1224E337834462D
:1038D00093B90C21FFF7F3F81F4B186001233370E5
:1038E0002B681A6A22F400521204120C1A621A6A25
:1038F00042F400521A6270BD012B27D10C21FFF750
:10390000DEF80022154B164918602B685A62124ADD
:10391000126890421BD9801A0860222209684A4323
:103920004FF4FA61B2FBF1F20E490A6000222270F4
:103930001A6A22F400521204120C1A621A6A1A62EB
:10394000094B1A68D36823F01003D36070BDE4D22A
:10395000101AE1E73C01002034010020380100206A
:103960002C010020300100204C02002010B5114C29
:1039700000224FF480612046FDF7D2FF022000F0C4
:1039800007FF01224FF480612046FDF7C9FF0A209E
:1039900000F0FEFE204600224FF48061FDF7C0FFDC
:1039A000054B1A68D36843F01003D360034B1868C3
:1039B00010BD00BF000C01404C020020300100206F
:1039C000012310B594B00E9310230F93002302240B
:1039D00012934FF460130AA80A9411941393FEF7FC
:1039E000A7FB00B1FEE70F2305934FF48063079018
:1039F0000990214605A806940893FEF761FD00B1E1
:103A0000FEE74FF4404301A801940393FEF722FE22
:103A1000044600B1FEE7FEF7F7FD4FF47A73B0FB02
:103A2000F3F0FDF76FFE0420FDF782FE22462146EB
:103A30004FF0FF30FDF726FE14B010BD80B5002416
:103A4000012502274FF4005698B0FDF757FBFFF70A
:103A5000B7FF934B4FF400519A69924842F010021D
:103A60009A619A6902F010020192019A9A6942F0F1
:103A700004029A619A6902F004020292029A9A6917
:103A800042F008029A619B69002203F00803039345
:103A9000039BFDF745FF002241218348FDF740FFCE
:103AA00000224FF4E0518148FDF73AFF11A97D480B
:103AB0001196129513941497FDF74CFE412311A90A
:103AC00079481193129513941497FDF743FE4FF420
:103AD000E05311A975481193129513941497FDF7AB
:103AE00039FE4FF4004311A96F48119312941395B6
:103AF000FDF730FE08236D4811A911931294139518
:103B0000FDF728FE4FF4165369486A4A846080E83E
:103B10000C000C23C460046143618461C461FFF73D
:103B20002DFC00B1FEE74FF0070C634C634BA06027
:103B300084E8081041F63F7320616061A06120466F
:103B4000E360FFF7BDF800B1FEE74FF4805718AD12
:103B500045F8487D29462046FEF7F8FE00B1FEE70D
:103B60002046FFF7C7F800B1FEE70490059004A9CE
:103B70002046FFF719FB024600B1FEE760230A93D7
:103B800041F288330C900D900E900F9010900AA97E
:103B900020460B93FFF70EF900B1FEE704220AA9B5
:103BA0002046FFF707F900B1FEE74FF4804311907C
:103BB000129013901490159011A920461696179301
:103BC000FFF7CCFA064600B1FEE7204600F044FDC0
:103BD0004FF0804340F2D73E394C84E80840FE2342
:103BE0002046A660E3602661A661FFF769F800B190
:103BF000FEE70AA920460A97FEF7A8FE00B1FEE7F5
:103C00002F48FFF777F800B1FEE7069007902946A6
:103C10002B48FFF7C9FA00B1FEE76023129013901A
:103C20001590042211A926481193FFF7C3F8064600
:103C300000B1FEE7224800F00FFD3F23214C22484F
:103C4000A66084E809004FF6FE732046E360266113
:103C5000A661FFF735F800B1FEE74FF480530AA9DB
:103C600020460A93FEF772FE00B1FEE72046FFF7FA
:103C70005BF800B1FEE70690079029462046FFF763
:103C800093FA00B1FEE701251190139014900C22D5
:103C900011A920461295FFF719F9B8B1FEE700BF48
:103CA000001002400010014000080140000C0140DB
:103CB0004803002000440040C8020020002C0140BE
:103CC000080300204C02002000040040624B634ABD
:103CD0006349986083E806004FF48042D8605861D9
:103CE0009861D861186218461A61FDF7EBFF00B1C0
:103CF000FEE75C4B5C4A58611A604FF480729A6030
:103D00004FF46022DA61022258601846DD601A61C1
:103D1000FDF70CFC00B1FEE70123042412930723F6
:103D200011A9504811941393FDF7C0FA00B1FEE7B2
:103D300005231193022311A94A481293FDF7B6FAFD
:103D400000B1FEE74948FEF7F4FD21464848FFF779
:103D500051F94848FEF7E0FD0C214648FFF78EF97F
:103D6000454B11AA03F11005144618685968083329
:103D700003C4AB422246F7D11B781122237011A94C
:103D800064233E48FFF728FB00F000FE01213C4879
:103D900000F00AFDFDF7D0F947F2305201463848ED
:103DA00000F007FD0121374800F0FEFCFDF7C4F9E3
:103DB0004FF4FA720146334800F0FBFC012132480F
:103DC00000F0F2FCFDF7B8F941F2883201462E48C6
:103DD00000F0EFFC01212D4800F0E6FCFDF7ACF906
:103DE0004FF47A720146294800F0E3FC244C254D3B
:103DF000274E00F04BFFFDF79FF90146204600F0EB
:103E0000E5FC18B100F0CCFD00F070FEFDF794F970
:103E10000146284600F0DAFC30B100F003FD4FF413
:103E200000513046FDF781FDFDF786F90146174840
:103E300000F0CCFC20B1174B1B780BB100F0ACF8B4
:103E4000FDF77AF90146104800F0C0FC0028D0D0F8
:103E500000F0D8FCCDE700BFF8010020801A060072
:103E6000005400408C02002000240140C8020020C1
:103E7000080300204C020020346C00084803002096
:103E8000E0010020BC02002088030020EC0100209B
:103E9000001001404C0100203C4B10B51B78013B49
:103EA000042B71D8DFE803F003203D4E5E00384B51
:103EB000384C19784FF47A734B43226803F57A63D0
:103EC0005363936300212046FFF746F904212046FF
:103ED000FFF742F900212046FFF78CF82046BDE8A5
:103EE00010400421FFF786B8294B2A4C19784FF46B
:103EF0007A734B43226803F57A635363002193631B
:103F00002046FFF78DF804212046FFF789F80021AD
:103F10002046FFF7EBF82046BDE810400421FFF7EC
:103F2000E5B81B4B4FF47A7218784FF4FA7342439A
:103F3000184C4343216802F57A624A6303F57A73A9
:103F40008B63BFE7124B4FF4FA7218784FF47A7311
:103F50004243104C4343216802F57A724A6303F5E9
:103F60007A63EDE700210B48FFF75AF8042109486E
:103F7000FFF756F800210748FFF7EEF8BDE81040BC
:103F800004210448FFF7E8B810BD00BF0800002076
:103F90003D010020C802002008B54FF400410B4845
:103FA000FDF7B8FC20B10422094B1A70FFF774FF2B
:103FB00008210848FDF7AEFC30B10322044B1A700B
:103FC000BDE80840FFF768BF08BD00BF000801401A
:103FD00008000020000C01402DE9F0410124642676
:103FE00086B00DF1160300930296234601947522C4
:103FF000D0218046FDF77CFF9DF81630682B32D12A
:10400000002706AD05F8017D23466B22D0210296DC
:10401000019400954046FDF7D5FE072319228DF83F
:104020001730D02123460296019400954046FDF7B3
:10403000C9FE23461C22D0210296019400954046D9
:104040008DF81770FDF7BEFE029601940095234689
:104050001B22D02140468DF81770FDF7B3FE38467D
:1040600006B0BDE8F0812046FAE72DE9F047824628
:104070008EB0CDE90A23D0E90834DDE91601CDE997
:1040800002341A462346FCF767F8DDE91823FCF7EB
:1040900017FADAE90623FCF761F8DAE91034CDE91A
:1040A0000601DDE91801CDE904341A462346FCF780
:1040B00007FADAE90C89DAE90E4542464B4606462C
:1040C0000F46FCF749F822462B46FCF745F8DAE99B
:1040D0000023FCF743F8DDE91823FCF7F1F9DAE9EE
:1040E0000A23FCF73BF83246CDE900013B46404647
:1040F0004946FCF731F83246804689463B46204621
:104100002946FCF729F8DAE90223CDE90801DDE9BF
:104110001801FCF7D5F9DDE90423FCF71FF8DAE90B
:104120000423CDE90C01DDE90001FCF717F8064690
:104130000F4602460B46DDE90001FCF7EBFA32467A
:1041400004460D46DDE908013B46FCF7E3FADDE9EC
:10415000062306460F46DDE90A01FBF7FDFFCDE920
:10416000040102460B4620462946FCF7A9F9DDE981
:104170000623FBF7F3FF02460B46CDE90601CAE929
:104180000623DDE9042330463946FCF799F9DDE9D9
:104190000223FBF7E3FF2246CAE90801DDE900013B
:1041A0002B46FCF78DF902460B46DDE90001FBF7D3
:1041B000D3FF2246CAE90A012B4640464946FCF78E
:1041C0007FF902460B4640464946FBF7C5FF32469B
:1041D000CAE90C01DDE900013B46FCF771F9024632
:1041E0000B46DDE90801FBF7B7FF3246CAE90E01CD
:1041F0003B4640464946FCF763F902460B46DDE97B
:104200000C01FBF7A9FFCAE91001DDE906010EB0B8
:10421000BDE8F0870000000064232DE9F04F89B06D
:1042200002930E230C46019304AB3B220093D02152
:104230000123FDF75DFE9DF810309DF811009DF8FB
:10424000139040EA03209DF812309DF8158049EA4A
:1042500003299DF814309DF817A048EA03289DF81B
:1042600016309DF819704AEA032A9DF818309DF817
:104270001B6047EA03279DF81A309DF81D5046EA57
:1042800003269DF81C300FFA89F945EA03250FFA39
:1042900088F83FB236B22DB200B2A4F80290A4F86A
:1042A000048027846684A5842080FCF7A3F800227C
:1042B000734BFCF705F9C4E902014846FCF79AF88C
:1042C00000226F4BFCF7FCF8C4E904014046FCF700
:1042D00091F865A3D3E90023FCF71CFA0FFA8AFAD8
:1042E000C4E906015046FCF7A5FC6649FCF7AAFDA7
:1042F0006549FCF7EBFB20643846FCF77BF85CA3D0
:10430000D3E90023FCF706FAC4E90A013046FCF7BA
:1043100071F857A3D3E90023FCF7FCF9C4E90C01B9
:104320002846FCF767F852A3D3E90023FCF7F2F91B
:10433000C4E90E01FCF700FF544D2B68C01AFCF7CE
:1043400049F80022524BFCF7E5F989468046FCF714
:10435000F3FEB4F9043028605B43B4F9000000FBBD
:104360000030FCF747F801F02FFC0022002306463E
:104370000F46FCF70DFB002863D1B4F90200FCF7EF
:1043800039F832463B46FCF7C5F901F021F93AA36A
:10439000D3E90023FCF794F882468B46B4F9040075
:1043A000FCF728F806460F46B4F900004042FCF737
:1043B00021F832463B4601F0A0FA2FA3D3E90023AF
:1043C000FCF77EF80022334B06460F46FCF7EAFA6C
:1043D00030B1D4E9140100222F4BFCF701FB70B976
:1043E00000222D4B30463946FCF7FAFA00282DD032
:1043F000D4E914010022274BFCF7D4FA30B3274B41
:10440000C4E91467C3E90667656D0022224B206D7D
:1044100025F00041FCF7E4FA18B1E36A03F1004328
:10442000E362D4E90C23CDE90289CDE900231C48DD
:1044300052465B46FFF719FEC4E9120109B0BDE818
:10444000F08F4FF0000A4FF0000BA7E7D4E90C23E0
:10445000CDE90289CDE90023104832463B46FFF7FB
:1044600004FEC4E91401CFE7000000000029CC409D
:104470000000000000606040F8C1631ADCA54C40F9
:104480000000103F0000AA43B81E1242980300200B
:1044900000408F40008056C00080564058000020E9
:1044A00010000020254B07B59A69032042F0010255
:1044B0009A619A6902F001020092009ADA6942F068
:1044C0008052DA61DB6903F080530193019BFDF7B1
:1044D000C7F800226FF00B001146FDF7D3F8002259
:1044E0006FF00A001146FDF7CDF800226FF00900C9
:1044F0001146FDF7C7F800226FF004001146FDF7E2
:10450000C1F800226FF003001146FDF7BBF800224E
:104510006FF001001146FDF7B5F800224FF0FF30B3
:104520001146FDF7AFF8064A536823F0E06343F005
:104530000073536003B05DF804FB00BF001002403D
:10454000000001407FB502680C4B9A4212D103F57E
:104550006C439A6902A942F400729A619B69084807
:1045600003F400730193019B30230293032303930D
:10457000FDF7F0F807B05DF804FB00BF0024014030
:10458000000801407FB502680C4B9A4213D1C0234A
:10459000029312230393032302A909480593FDF70D
:1045A000D9F8084BDA6942F40012DA61DB6903F4E6
:1045B00000130193019B07B05DF804FB0054004019
:1045C000000C01400010024010B503681E4A86B07E
:1045D00093420BD11D4B9A6942F400629A619B6928
:1045E00003F400630093009B06B010BDB3F1804F4D
:1045F0000BD103F50433DA6942F00102DA61DB69B9
:1046000003F001030293029BEEE7114A9342EBD1C0
:104610000E4B0024DA6902A942F00202DA61DB697A
:104620000C4803F002030193019B022303940293BD
:104630000494FDF78FF8224621461D20FDF722F84D
:104640001D20FDF753F8CFE7002C01400010024079
:1046500000040040000C01401FB50368154A934256
:104660001CD102244FF46073694613488DE818008A
:104670000394FDF76FF80123694610488DE8180090
:104680000394FDF767F80E4A536823F0C00343F024
:10469000E06343F04003536004B010BDB3F1804FBA
:1046A000FAD1022369460448009301930393FDF76E
:1046B00051F8F1E7002C014000080140000C0140D6
:1046C000000001407FB50268114B9A421DD103F5ED
:1046D000E633DA6902A942F40032DA61DB690D4897
:1046E00003F400330193019B0423029302230393F9
:1046F00003230593FDF72EF808230293002302A954
:10470000044803930493FDF725F807B05DF804FB14
:1047100000440040000801407047FEE7FEE7FEE766
:10472000FEE770477047704708B5FCF7F9FCBDE835
:104730000840FDF70AB800000148FEF7E7B900BFDE
:104740004C0200200F4B1A6842F001021A605968AF
:104750000D4A0A405A601A6822F0847222F48032AC
:104760001A601A6822F480221A605A6822F4FE0243
:104770005A604FF41F029A604FF00062034B9A6038
:10478000704700BF001002400000FFF800ED00E09D
:10479000044B1A6800235362536A9BB28342FBD3D3
:1047A000704700BF4C020020002301720360436089
:1047B0007047002908BF012180E806007047884241
:1047C000A0EB010038BF00F1FF3070470A460168D6
:1047D00008B5034649B11046FFF7F1FF5968884212
:1047E00094BF0020012010B908BD084608BD002173
:1047F0001960197A012903D1002A08BF01221A6021
:1048000008BD0000054A1378FD2B8FBF0023044923
:1048100009688B6398BF1E331370704748010020EE
:104820000803002038B5012240211748FDF778F829
:1048300001224FF400611548FDF772F80122144C73
:1048400011461148FDF76CF82378124D0B2B84BFED
:104850000023237023784021EA5C0B48FDF760F8C1
:1048600023784FF400612B441A7B0848FDF758F871
:10487000237801211D442A7E0348FDF751F823784F
:104880000133237038BD00BF00080140000C014017
:10489000490100206E010020F0B5314B01288BB09A
:1048A00003F10C0603F118051FD0022841D02D4C4E
:1048B00001AA20686168A76803C201AA03CA224648
:1048C000186052F80C0F596051689F6004AF03C71D
:1048D000976804AA03CAD86054F8180F7160616819
:1048E00007AAB76003C2A4681CE01F4A01AC1068A5
:1048F0005168976803C401AC03CC1446186054F89F
:104900000C0F596061689F6004AF03C7A76804ACCF
:1049100003CCD86052F8180F7160516807AC03C41B
:104920009468B76007AA03CA98616960AC600BB06D
:10493000F0BD0E4A01AC1068516801AF03C4906825
:10494000044603CF04AF03C704AF186059609C60EE
:1049500003CFD8607160B46007AE03C6E2E700BF62
:104960006E010020106C0008E06B0008046C000869
:1049700008B50448FEF714FEBDE808400248FFF7FA
:104980002BBB00BFA4010020F801002008B50020C7
:10499000FFF782FFFFF7ECFFBDE80840FFF77CBAA6
:1049A000F0B5102487B0314F2246002102A800F054
:1049B000CBF93846FEF76CFFB86AFCF755FB2C4E76
:1049C0002C4D009023463246214602A800F0C4F93F
:1049D0003223224602A92846FEF7FEFC2246002189
:1049E00002A800F0B1F9FB6A324600932146112378
:1049F00002A800F0B1F93223224602A92846FEF7A8
:104A0000EBFC2246002102A800F09EF9786BFCF72F
:104A10002BFB324600902146122302A800F09CF99D
:104A20003223224602A92846FEF7D6FC2246002160
:104A300002A800F089F9FEF799FF3246009021465E
:104A4000132302A800F088F93223224602A928463F
:104A5000FEF7C2FC2246002102A800F075F90649C3
:104A60000648FFF7D9FB07B0F0BD00BFA401002046
:104A70005D6C000848030020A0030020F80100201E
:104A800070B5174D2846FCF7CDFC32212846FCF7BF
:104A90006BFB2846FCF706FC322104462846FCF74F
:104AA00063FB2846FCF7FEFB06462846FCF7BEFDE6
:104AB00040F6E44340F6FF7103FB04F27343B3FB9B
:104AC000F1F30A20C3EB0313B2FBF1F2B3FBF0F3F3
:104AD000044802EB42020360D31A034A136070BD1C
:104AE0008C02002044010020400100207FB51022EC
:104AF000002102A800F028F9FFF7C2FF254B1B6830
:104B0000B3F5616F1BD9244B1B68B3F5616F1AD9DC
:104B100000224FF480512148FCF702FF0323009349
:104B20001F4A1423102102A800F016F93223102284
:104B300002A91C48FEF750FC07B05DF804FB40F6E4
:104B4000485293420DD9144B1A6840F648539A4282
:104B50000AD900224FF480511048FCF7E1FE0223ED
:104B6000DDE7B3F5486F0CD90B4B1B68B3F5486F05
:104B700007D901224FF480510848FCF7D1FE0123E8
:104B8000CDE701224FF480510448FCF7C9FE002311
:104B9000C5E700BF4001002044010020000C014097
:104BA0005D6C0008480300200B4B1A78022A0DD0D8
:104BB000042A0ED0012A0ED15A7808490A701AB96F
:104BC0009A78074B1A707047FFF766B95878FFF765
:104BD00063BEFFF7E5BE70474E0100204C01002088
:104BE00008000020402870B50446244D0CD1012354
:104BF00000212B70224B20221970224B2248197061
:104C0000BDE8704000F0A0B8212803D100232B702C
:104C1000FFF7CAFF2B78CBB11A4A194E11781A4DFB
:104C200011F0010F15D1302C05D3392C05D9A4F181
:104C30004103052B0BD9002401E0303CE4B233786A
:104C4000E85C40EA0414EC540131117070BD373C4B
:104C5000F4E7302C05D3392C05D9A4F14103052BF9
:104C60000AD9002401E0303CE4B23378E85C044324
:104C7000EC5401333370E7E7373CF5E7920100204D
:104C80004A0100204B0100204E010020012310B5F5
:104C9000064C1A4621460648FEF7FAFB20B9207852
:104CA000BDE81040FFF79EBF10BD00BF4D010020C2
:104CB00048030020002103E00B4B5B5843500431B4
:104CC0000A480B4B42189A42F6D30A4A02E00023E4
:104CD00042F8043B084B9A42F9D3FFF733FD00F04A
:104CE0000FF8FEF7ABFE7047386D0008000000209B
:104CF0000C01002010010020FC030020FEE7000052
:104D000070B500250C4E0D4CA41BA410A54209D172
:104D100001F048FF00250A4E0A4CA41BA410A5422E
:104D200005D170BD56F8253098470135EEE756F8A5
:104D3000253098470135F2E7306D0008306D0008E6
:104D4000306D0008346D000803460244934200D1E0
:104D5000704703F8011BF9E70CB430B5174B0C1E74
:104D60009DB01D6808DA8B234FF0FF302B601DB01B
:104D7000BDE8304002B070474FF40273ADF8143014
:104D80000CBF234604F1FF33049307934FF6FF73E0
:104D900002900690ADF81630209A21AB02A9284661
:104DA000019300F069F8431CBCBF8B232B60002CDF
:104DB000DDD00022029B1A70D9E700BFA4000020BA
:104DC0002DE9F0478E6882469E420C4691469846F1
:104DD00035D88A8912F4906F31D002232568096989
:104DE0006F1A656905EB450595FBF3F508F10103BD
:104DF0003B449D4238BF1D46530531D5294600F03E
:104E000047FB064650B90C23CAF80030A3894FF07F
:104E1000FF3043F04003A381BDE8F0873A462169A3
:104E200000F0C4FAA38923F4906343F08003A381C4
:104E300026613E44266046466561ED1BA5604645F9
:104E400028BF464649463246206800F0BAFAA368B1
:104E500000209B1BA36023681E442660BDE8F087EA
:104E60002A4600F073FB06460028E1D1216950462E
:104E700000F0C2FAC7E700002DE9F04F9DB00393A0
:104E80008B8980461C060D4616460FD50B696BB9FB
:104E9000402100F0FDFA2860286128B90C23C8F8E9
:104EA00000304FF0FF30C4E040236B6100230993D2
:104EB00020238DF8293030234FF0010B8DF82A3054
:104EC00037463C4614F8013B002B3CD1B7EB060AB1
:104ED0000BD05346324629464046FFF771FF01305A
:104EE00000F0A280099B534409933B78002B00F00B
:104EF0009B8000234FF0FF320493079305920693A3
:104F00008DF853301A9305222178504800F040FA6A
:104F1000671C049BD8B9D90644BF20228DF85320C2
:104F20001A0744BF2B228DF8532022782A2A16D044
:104F300000210A20079A27463B780134303B092B91
:104F400050D9C9B111E0252BC0D02746B9E73F4A57
:104F50003C46801A0BFA00F018430490D3E7039AFA
:104F6000111D12680391002A01DB079204E05242EE
:104F700043F00203079204933B782E2B0DD17B78EC
:104F8000791C2A2B32D1039B02371A1D1B6803920E
:104F9000002BB8BF4FF0FF3305932D4C0322397817
:104FA000204600F0F5F938B14023001B03FA00F069
:104FB000049B0137034304933978062225487E1C5D
:104FC0008DF8281000F0E4F9002835D0224BFBB909
:104FD000039B073323F0070308330393099B4B44D8
:104FE00009936DE700FB02320121A4E700230A24A4
:104FF000184605930F463A780131303A092A03D909
:10500000002BCAD00590C8E704FB00200123F1E77C
:1050100003AB00932A46114B04A94046AFF300802E
:10502000B0F1FF3F8146D9D1AB895B063FF539AF7F
:1050300009981DB0BDE8F08F03AB00932A46074BDB
:1050400004A9404600F084F8EAE700BF666C000857
:105050006C6C0008706C000800000000C14D000876
:105060002DE9F04791461F468A680B690646934230
:10507000B8BF1346C9F8003091F843200C46DDF85C
:10508000208012B10133C9F800302368990642BF6D
:10509000D9F800300233C9F80030256815F006054C
:1050A00007D104F1190AE368D9F800209B1A9D4240
:1050B0002ADB94F843302268003318BF012392069C
:1050C0002FD404F1430239463046C047013022D084
:1050D0002368E56803F00603042B18BF0025D9F800
:1050E00000204FF0000908BFAD1AA368226908BF6D
:1050F00025EAE5759342C4BF9B1AED181A344D4555
:105100001BD10020BDE8F0870123524639463046C6
:10511000C047013003D14FF0FF30BDE8F0870135C3
:10512000C1E73020E11881F843005A1C94F845107B
:105130002244023382F84310C3E701232246394652
:105140003046C0470130E6D009F10109D7E7000039
:105150002DE9F04317460A7E85B06E2A984606462A
:105160000C460C9B01F1430E00F0BC801AD8632A58
:105170002ED00AD8002A00F0C880582A00F08A8071
:1051800004F1420584F842202AE0642A01D0692A09
:10519000F6D121681A6811F0800F23D0111D196013
:1051A000136827E0732A00F0B48008D86F2A2AD049
:1051B000702AE5D10A6842F020020A6003E0752AED
:1051C00021D0782ADCD178226F4984F8452064E028
:1051D0001A6801F14205111D1960136884F8423004
:1051E0000123A3E011F0400F02F104011960D7D0B0
:1051F000B2F90030002B03DA2D225B4284F8432001
:1052000062490A2217E02068196810F0800F03D065
:10521000081D18600B6806E010F0400F01F1040053
:105220001860F7D00B886F2A14BF0A22082257494A
:10523000002084F843006568002DA560C0F29C80C2
:10524000206820F004002060002B3FD1002D40F0AA
:1052500095807546082A0BD12368DA0708D523699B
:1052600062689A42DEBF302305F8013C05F1FF3544
:10527000AEEB05032361CDF800803B4603AA21462F
:105280003046FFF7EDFE013055D14FF0FF3005B04D
:10529000BDE8F08381F845203C492268186812F087
:1052A000800F00F104051D6001D0036802E055067F
:1052B000FBD50388D00744BF42F0200222601BB90F
:1052C000226822F0200222601022B1E77546B3FB6B
:1052D000F2F002FB1033CB5C05F8013D03460028D9
:1052E000F5D1B7E708681A6810F0800F496904D053
:1052F000101D18601368196007E010F0400F02F1EC
:10530000040018601368F6D01980002375462361E5
:10531000B1E71A68111D19601568002162682846F6
:1053200000F036F808B1401B606063682361002319
:1053300084F843309FE723692A4639463046C04700
:105340000130A2D023689B0707D5002504F1190975
:10535000E368039A9B1A9D4205DBE068039B984231
:10536000B8BF184693E701234A4639463046C0473E
:1053700001308AD00135EBE7002BA7D10B7804F17F
:10538000420584F8423065E7886C0008776C0008B5
:1053900010B5C9B202449042034601D1002010BDAD
:1053A0001C7801308C42F6D1184610BD10B5431E52
:1053B0000A44914200D110BD11F8014B03F8014F8E
:1053C000F7E7884210B501EB020303D8421E994269
:1053D0000CD110BD9842F9D28118D21AD34200D113
:1053E00010BD13F8014D01F8014DF7E711F8014B1D
:1053F00002F8014FEBE7000038B50546002943D01D
:1054000051F8043C0C1F002BB8BFE41800F0D4F88E
:105410001E4A1368104633B9636014602846BDE81D
:10542000384000F0CAB8A3420BD9216862189342F1
:1054300001BF1A685B685218226063600460EDE780
:1054400013465A680AB1A242FAD919685818A042FC
:105450000BD120680144581882421960DED11068CF
:105460005268014419605A60D8E702D90C232B60B6
:10547000D4E7206821188A4201BF116852680918D0
:10548000216062605C60C9E738BD00BF9401002004
:1054900070B5CD1C25F0030508350C2D38BF0C2543
:1054A000002D064601DBA94203D90C2333600020FE
:1054B00070BD00F081F8234A1468214691B9224C4E
:1054C00023681BB9304600F067F820602946304653
:1054D00000F062F8431C26D10C233046336000F004
:1054E0006CF8E4E70B685B1B1AD40B2B0FD90B602D
:1054F000CC18CD50304600F060F804F10B00231DAD
:1055000020F00700C31A1BD05A42E25070BD8C42F3
:105510000BBF63684B681360636018BF0C46E9E714
:105520000C464968CAE7C41C24F00304A04205D015
:10553000211A304600F030F80130CDD02560D9E78F
:1055400070BD00BF9401002098010020F8B5074607
:1055500014460E4621B91146BDE8F840FFF798BF42
:1055600022B9FFF749FF25462846F8BD00F026F886
:1055700084420FD921463846FFF78AFF05460028A6
:10558000F2D031462246FFF711FF31463846FFF789
:1055900033FFE9E73546E7E738B50023054C054614
:1055A0000846236001F0F0FA431C02D1236803B1DE
:1055B0002B6038BDF80300207047704751F8040C89
:1055C0000028A0F10400BCBF0B58C01870470000B1
:1055D0002DE9F84FBA4B21F000469E4204460D4695
:1055E0008B4617DDB74A964201DC09D140B122460D
:1055F0002B4620462946FAF7B1FD04460D4605E044
:10560000BBF1000FB04C00F32981B04D2046294674
:10561000BDE8F88FAE4B9E4211DCA3F1DE739E42D3
:105620000ADC8FA3D3E90023FAF798FD0022A94BE7
:10563000FBF7D6F90028E9D14FF0FF3A27E000F058
:1056400059F9A54B04469E420D4600F3B880A3F5D8
:1056500050239E4200F39C8002460B46FAF77EFDE3
:1056600000229C4BFAF778FD002206460F464FF0C9
:10567000804320462946FAF771FD02460B46304624
:105680003946FBF747F84FF0000A04460D4622461C
:105690002B4620462946FAF713FF02460B46804662
:1056A0008946FAF70DFF70A3D3E9002306460F469B
:1056B000FAF706FF6EA3D3E90023FAF74FFD32464F
:1056C0003B46FAF7FDFE6CA3D3E90023FAF746FD4B
:1056D00032463B46FAF7F4FE69A3D3E90023FAF712
:1056E0003DFD32463B46FAF7EBFE67A3D3E90023C4
:1056F000FAF734FD32463B46FAF7E2FE64A3D3E9FB
:105700000023FAF72BFD42464B46FAF7D9FE62A377
:10571000D3E900238046894630463946FAF7D0FE61
:105720005FA3D3E90023FAF717FD32463B46FAF7A9
:10573000C7FE5DA3D3E90023FAF70EFD32463B46D0
:10574000FAF7BEFE5AA3D3E90023FAF705FD324665
:105750003B46FAF7B5FE58A3D3E90023FAF7FCFC61
:1057600032463B46FAF7ACFEBAF1FF3F02460B4623
:105770004ED140464946FAF7F1FC22462B46FAF74D
:105780009FFE02460B4620462946FAF7E5FC34E721
:105790000022504BFAF7E0FC002206460F464D4B24
:1057A00020462946FAF7DAFC02460B4630463946CF
:1057B000FAF7B0FF4FF0010A04460D4667E7474B82
:1057C0009E421ADC0022464BFAF7C6FC002206462F
:1057D0000F46434B20462946FAF772FE00223D4B06
:1057E000FAF7BCFC02460B4630463946FAF792FF00
:1057F0004FF0020A04460D4649E702460B460020D8
:105800003849FAF787FF4FF0030A04460D463EE792
:1058100040464946FAF7A2FC22462B46FAF750FECC
:10582000314E324B4FEACA0A56449A44DAE9002311
:10583000FAF792FC22462B46FAF78EFC02460B46FC
:10584000D6E90001FAF788FCBBF1000F04460D46CB
:10585000BFF6DCAE01F100431D46D7E6244DD5E688
:105860009C7500883CE4377E11DA22E33AAD903F24
:10587000EB0D76244B7BA93F513DD0A0660DB13F87
:105880006E204CC5CD45B73FFF8300922449C23FEF
:105890000D5555555555D53F2F6C6A2C44B4A2BFB4
:1058A0009AFDDE522DDEAD3F6D9A74AFF2B0B33F7C
:1058B000711623FEC671BC3FC4EB98999999C93FF4
:1058C000FFFF0F440000F07F182D4454FB21F9BF67
:1058D000FFFFDB3F0000F03FFFFFF23FFF7F034091
:1058E0000000F83F0000F0BFA06C0008C06C00088A
:1058F000FB21F93F21F00041704700F0B9B90000E9
:105900002DE9F04F8FB01D4680468946144600F0C1
:105910008BFAA54FCDE9000197F900303E4602937E
:1059200001335FD022462B4620462946FBF762F81A
:105930008246002856D142464B4640464946FBF730
:1059400059F80390E8B10022002320462946FBF7CE
:105950001FF8002846D0012300220493934BCDF872
:1059600030A00593924BCDE90689CDE90A23029B2D
:10597000CDE90845022B31D004A800F0F9FF38BB6F
:1059800058E04FF0000A4FF0000B52465B4640468D
:105990004946FAF7FDFF002851D052465B462046A3
:1059A0002946FAF7F5FF064608B3012304937F4B17
:1059B000CDE906890593039BCDE908450C93029B2D
:1059C000CDE90AAB002BD7D00022794BCDE90A23D1
:1059D0000C9B1BB101F0D2F80C9B0360DDE90A348B
:1059E0008DE81800DDE900010FB0BDE8F08F20461A
:1059F000294600F0B7FF0028F4D052465B46204607
:105A00002946FAF7CFFF0028ECD001230493674B17
:105A10000C96059397F90030CDE90689CDE9084544
:105A200013B9CDE90AABA7E700206249022BCDE903
:105A30000A01A1D101F0A2F821230360C8E7DDE942
:105A4000000100F08FFF029000287FD140464946B8
:105A500000F088FF002879D02046294600F082FF18
:105A6000002873D0DDE9002319461046FAF7C2FF7B
:105A700097F900704D4BA0B101220593029B04924F
:105A80000C93CDE90689CDE90845002FC9D05246CF
:105A90005B4650465946FAF73DFE022FCDE90A0112
:105AA000C7E70322059304920C90CDE90689CDE95E
:105AB000084557BB4FF060423F4B4046CDE90A23B3
:105AC000494652465B46FAF76DFF002864D0002233
:105AD0003A4B20462946FAF7F3FC04460D4600F0FF
